:060000000A128A110C280F
:10000800FE00030EF1000A08F2000A128A111828ED
:100018000A128A110F28F701F801F901FA01FB0108
:1000280083010A128A11AA28831203138C1D1D2822
:100038001E286E281412141B222823282728941FF0
:10004800262827282C281308FB00141394131416A9
:1000580083160313941A312832284C28141935288A
:1000680036284C28831203131308FB008C1114162E
:1000780083160313141C412842283C2883120313B7
:100088001308FA00A630F000F00B482800006B288F
:10009800941A4F2850286B28141D532854286B286D
:1000A800831203131308FB00831603131410790833
:1000B8008312031393001416A630F000F00B622885
:1000C80000008316031314186A286B286528831206
:1000D80003138C110B1C712872287D2806187528AB
:1000E80076287C280130F7070318F80A0030F8074B
:1000F8000B1072088A00710E8300FE0E7E0E090036
:100108008316031788018901831603138801831254
:1001180003138801FF30831603138600FF30950010
:10012800FF3096008501831203138501831603139C
:1001380081138B110B100F178F160F160F145030D9
:100148000A128A11C6200A128A1108000A128A1194
:1001580084200A128A118B150B30F6002630F50020
:100168005D30F400F40BB628F50BB628F60BB6286C
:10017800BD288B117708F900F701F801AF280A129A
:100188008A110C28F3007308831603139300363082
:1001980083120313940080308316031394000130F4
:1001A8009100871507168B170B17831203138C11F1
:0801B800831603138C150800E7
:08400000FF3FFF3FFF3FFF3FC0
:04400E00D420FF3F7C
:00000001FF
