:060000000A128A110C280F
:10000800FE00030EF1000A08F2000A128A111B29E9
:100018000A128A110F28F701F801F901FA0183126F
:100028000313AF01B001B101B201B301B401B501CD
:10003800B601B701B801B901BA01BB0183010A12BF
:100048008A1126280A128A11C5220A128A110A124E
:100058008A11E8220A128A110A128A1199220A12AE
:100068008A11031C382839286B2878300A128A111B
:1000780050220A128A110318422843286B283B3061
:100088000A128A1150220A128A1103184C284D2884
:100098006B287A300A128A1150220A128A11031820
:1000A800562857286B2879300A128A1150220A12CA
:1000B8008A110318602861286B283A300A128A11BD
:1000C80050220A128A11031C6A286B28702883128E
:1000D8000313B401B10108297808831203133B07FD
:1000E800A500A601A60D7A082507A7000030031869
:1000F80001302607A80079082707A900003003184F
:1001080001302807AA00FF302905AB0000302A0576
:10011800AC003A08AD00AE012C082E06031D962847
:100128002B082D06031D99289A286B280A30F300FE
:100138000030F4007A08A500A6012508F500260875
:10014800F6000A128A118C210A128A117308303EAD
:1001580083120313B6000A30F3000030F4007A0863
:10016800A500A6012508F5002608F6000A128A113E
:10017800F5210A128A117308303E83120313B50061
:100188000A30F30036080A128A111D230A128A114E
:10019800831203133507F03EB4000A30F300003031
:1001A800F4007808A500A6012508F5002608F60041
:1001B8000A128A118C210A128A117308303E83129E
:1001C8000313B3000A30F3000030F4007808A500E8
:1001D800A6012508F5002608F6000A128A11F5215D
:1001E8000A128A117308303E83120313B2000A30D0
:1001F800F30033080A128A111D230A128A11831286
:1002080003133207F03EB10010100B3083120313B2
:10021800A7002630A6005D30A500A50B1129A60B66
:100228001129A70B11292B280A128A110C288312CD
:1002380003138C1D2029212985291412141B252913
:1002480026292A29941F29292A292F291308B90080
:1002580014139413141683160313941A3429352986
:100268004F291419382939294F29831203131308E0
:10027800B9008C11141683160313141C442945293C
:100288003F29831203131308B800A630F000F00BBF
:100298004B2900008229941A522953298229141DB6
:1002A800562957298229831203131308B900831684
:1002B800031314100130F0007008F7077718652948
:1002C80066296B29831203133408B7007329771C36
:1002D8006E296F297329831203133108B70083121B
:1002E800370893001416A630F000F00B79290000A7
:1002F800831603131418812982297C298312031376
:100308008C1172088A00710E8300FE0E7E0E0900A1
:1003180083120313A201F41F922993299A29F3093E
:10032800F409F30A0319F40AA201A20AF61F9D2987
:100338009E29A729F509F609F50A0319F60A0130D5
:10034800A0002008A206A301A401730874040319DD
:10035800AE29AF29E629A101A10ABD290130031060
:10036800F30DF40DFF3E031DB3290130A000200852
:10037800A107F41FC029C129B22901300310A30D18
:10038800A40DFF3E031DC22974087602031DCE2961
:1003980073087502031CD129D229D9297308F502DB
:1003A8007408031CF603F602231401300310F40C3E
:1003B800F30CFF3E031DDA290130A102031DE529D4
:1003C800E629C12922080319EA29EB29F029A309FA
:1003D800A409A30A0319A40A2408F4002308F300B3
:1003E800080083120313A201F61FFB29FC29032A24
:1003F800F509F609F50A0319F60AA201A20AF41F7B
:10040800062A072A0C2AF309F409F30A0319F40A3D
:10041800730874040319112A122A412AA101A10A96
:10042800202A01300310F30DF40DFF3E031D162A98
:100438000130A0002008A107F41F232A242A152A26
:1004480074087602031D2A2A73087502031C2D2AD4
:100458002E2A342A7308F5027408031CF603F602E0
:1004680001300310F40CF30CFF3E031D352A013054
:10047800A102031D402A412A242A22080319452AD9
:10048800462A4B2AF509F609F50A0319F60A7608E9
:10049800F4007508F3000800F6007608840083135A
:1004A8008001F501831203138F018E01632A6530E1
:1004B8000E02031C602A612A632A0314982A061C68
:1004C800662A672A5B2A8F018E01712A65300E021F
:1004D800031C6F2A702A712A612A0618742A752A41
:1004E8006A2A33300E02031C7A2A7B2A8D2A0130AD
:1004F800F3007508073C013E832A0310F30DFF3E05
:10050800031D812A7308F400760884007408831395
:1005180080040130F3007308F50708307502031CE6
:10052800962A972A562A03100800831203138F016C
:100538008E0110140618A12AA22AA82A64300E02D5
:10054800031CA72AA82A9E2A64300E02031CAD2A7F
:10055800AE2AB02A0310C42A8F018E01061CB52AC0
:10056800B62ABC2A64300E02031CBB2ABC2AB22A53
:1005780064300E02031CC12AC22AC32AAE2A0314FD
:10058800080083160317880189018316031388015D
:10059800831203138801831603130F178F160F1680
:1005A8000F1410308312031390008F018E018316ED
:1005B8000313860183120313860180300A128A11FD
:1005C80003230A128A1108008316031306108312E4
:1005D800031306104130F400EE30F300F30BF22A57
:1005E800F40BF22A00008312031306141330F300ED
:1005F800F30BFC2AFF2A8316031306140800F300E2
:100608007308831603139300363083120313940080
:100618008030831603139400013091008715071664
:100628008B170B17831203138C11831603138C1566
:100638000800F600F501761C222B232B272B7308C4
:10064800F4007408F5070310F30D0310F60C760890
:0C065800031D2F2B302B1F2B75080800F2
:08400000FF3FFF3FFF3FFF3FC0
:04400E00D420FF3F7C
:00000001FF
