:060000000A128A11122809
:10000800FE00030E83120313A9000408AA000A08BD
:10001800AB007F08AC000A128A1574290A128A11EB
:10002800152883136330FD001F30FE003B30FF00AE
:100038005B3084000A128A1507200A128A11A03040
:100048008400BC300A168A1533270A128A115030E8
:1000580084005B300A168A1533270A128A11FD01BB
:1000680083010A128A1138280A128A117F270A1274
:100078008A111A3083120313AE008030AF000A16BB
:100088008A110B220A128A110A168A155E270A1289
:100098008A11D03083120313BE000030BF000A1645
:1000A8008A1138200A128A11003083120313BE0005
:1000B800BF000A168A1138200A128A118312031304
:1000C8005E08B7005D08B6000A168A1191240A1264
:1000D8008A11831203133708BF003608BE000A16B8
:1000E8008A1138200A128A110A168A1567270A12F5
:1000F8008A11023083160313D4000430D300B930B8
:10010800D200D20B8528D30B8528D40B85288C28C0
:100118000A168A155E270A128A11D0308312031331
:10012800BE000030BF000A168A1138200A128A1150
:10013800013083120313BE000030BF000A168A1173
:1001480038200A128A11831203136008B7005F0867
:10015800B6000A168A1191240A128A11831203130F
:100168003708BF003608BE000A168A1138200A125E
:100178008A110A168A1567270A128A11023083160D
:100188000313D4000430D300B930D200D20BCA28EC
:10019800D30BCA28D40BCA28D1280A168A155E2779
:1001A8000A128A11D03083120313BE000030BF0038
:1001B8000A168A1138200A128A1102308312031390
:1001C800BE000030BF000A168A1138200A128A11B0
:1001D800831203136208B7006108B6000A168A1171
:1001E80091240A128A11831203133708BF003608B4
:1001F800BE000A168A1138200A128A110A168A15B0
:1002080067270A128A11023083160313D4000430B8
:10021800D300B930D200D20B0F29D30B0F29D40B3E
:100228000F2916290A168A155E270A128A115030D4
:1002380083120313BE000030BF000A168A1138204B
:100248000A128A11003083120313BE00BF000A1677
:100258008A1138200A128A110A168A1567270A1283
:100268008A11023083160313D4000430D300B93046
:10027800D200D20B3D29D30B3D29D40B3D2944296B
:100288000A168A155E270A128A115130831203133F
:10029800BE000030BF000A168A1138200A128A11DF
:1002A800003083120313AD00AE000A168A11242110
:1002B8000A128A11831203132D08DA000A168A1506
:1002C80067270A128A11023083160313D4000430F8
:1002D800D300B930D200D20B6F29D30B6F29D40BBE
:1002E8006F2976290A168A155E270A128A11803024
:1002F80083120313BE000030BF000A168A1138208B
:100308000A128A11003083120313BE00BF000A16B6
:100318008A1138200A128A110A168A1567270A12C2
:100328008A11023083160313D4000430D300B93085
:10033800D200D20B9D29D30B9D29D40B9D29A4292A
:100348000A168A155E270A128A118130831203134E
:10035800BE000030BF000A168A1138200A128A111E
:10036800003083120313AD00AE000A168A1124214F
:100378000A128A11831203132D08D8000A168A1547
:1003880067270A128A11023083160313D400043037
:10039800D300B930D200D20BCF29D30BCF29D40B3D
:1003A800CF29D6290A168A155E270A128A118030A3
:1003B80083120313BE000030BF000A168A113820CA
:1003C8000A128A11013083120313BE000030BF00E5
:1003D8000A168A1138200A128A110A168A156727FE
:1003E8000A128A11023083160313D4000430D30092
:1003F800B930D200D20BFE29D30BFE29D40BFE292B
:10040800052A0A168A155E270A128A118130831274
:100418000313BE000030BF000A168A1138200A12E2
:100428008A11003083120313AD00AE000A168A1138
:1004380024210A128A11831203132D08D9000A16DF
:100448008A1567270A128A11023083160313D4000B
:100458000430D300B930D200D20B302AD30B302A63
:10046800D40B302A372A0A168A155E270A128A11EF
:10047800D03083120313BE000030BF000A168A1161
:1004880038200A128A11003083120313BE00BF00FD
:100498000A168A1138200A128A110A168A1555274F
:1004A8000A128A11D13083120313BE000030BF0034
:1004B8000A168A1138200A128A110030831203138F
:1004C800AD00AE000A168A1124210A128A1183127D
:1004D80003132E08B4002D08B3000A168A11D2207F
:1004E8000A128A11831203133408DE003308DD0070
:1004F8000A168A1567270A128A110A168A155E27AC
:100508000A128A11D03083120313BE000030BF00D4
:100518000A168A1138200A128A110130831203132D
:10052800BE000030BF000A168A1138200A128A114C
:100538000A168A1555270A128A11D1308312031315
:10054800BE000030BF000A168A1138200A128A112C
:10055800003083120313AD00AE000A168A1124215D
:100568000A128A11831203132E08B4002D08B3004F
:100578000A168A11D2200A128A1183120313340828
:10058800E0003308DF000A168A1567270A128A1165
:100598000A168A155E270A128A11D03083120313AD
:1005A800BE000030BF000A168A1138200A128A11CC
:1005B800023083120313BE000030BF000A168A11EE
:1005C80038200A128A110A168A1555270A128A1122
:1005D800D13083120313BE000030BF000A168A11FF
:1005E80038200A128A11003083120313AD00AE00BE
:1005F8000A168A1124210A128A11831203132E085B
:10060800B4002D08B3000A168A11D2200A128A11E2
:10061800831203133408E2003308E1000A168A152E
:1006280067270A128A11B83083120313B6006108CB
:100638000A168A1179270A128A11B4308312031311
:10064800B6005D080A168A1179270A128A11B03095
:1006580083120313B6005F080A168A1179270A1253
:100668008A110A168A15AD270A128A1120308316B4
:100678000313D200D20B3E2B000083120313B101E7
:10068800B10A01300A168A11DF220A128A111530BE
:1006980083120313B2008030B3000A168A11512264
:1006A8000A128A11203083160313D200D20B5A2B58
:1006B8000000B83083120313B2000030B3000A16EA
:1006C8008A1151220A128A11203083160313D2008C
:1006D800D20B6C2B00003A300A168A1156210A12E6
:1006E8008A11203083160313D200D20B792B000015
:1006F800B03083120313B2000030B3000A168A1117
:1007080051220A128A11203083160313D200D20B09
:100718008B2B00003A300A168A1156210A128A11C8
:10072800203083160313D200D20B982B0000B4306C
:1007380083120313B2000030B3000A168A11512243
:100748000A128A11203083160313D200D20BAA2B67
:100758000000831203135A0883160313D200D3012F
:10076800520883120313AF0083160313530883122E
:100778000313B0003130AD000030AE000A168A1104
:1007880023260A128A11831203132D08B6002E0895
:10079800B7000030B71BFF30B800B90001300A12AB
:1007A8008A15BA200A128A1183120313390883168C
:1007B8000313A30083120313380883160313A2003C
:1007C80083120313370883160313A100831203133C
:1007D800360883160313A0002308BF002208BE00B2
:1007E8002108BD002008BC00AC30C0000130C100A9
:1007F8000030C2000A128A15C9220A128A11A430CE
:1008080083120313B60059080A168A1179270A12A7
:100818008A11A83083120313B60058080A168A11E1
:1008280079270A128A11203083160313D200D20BBB
:100838001B2C000083120313B101B10A02300A16FF
:100848008A11DF220A128A11203083160313D2007C
:10085800D20B2C2C00001F3083120313B2008030FF
:10086800B3000A168A1151220A128A1120308316FF
:100878000313D200D20B3E2C0000AC3083120313BA
:10088800B2000030B3000A168A1151220A128A11E6
:10089800203083160313D200D20B502C00001A30DC
:1008A80083120313B2008030B3000A168A11512252
:1008B8000A128A11203083160313D200D20B622C3D
:1008C80000001C3083120313B2008030B3000A16F4
:1008D8008A1151220A128A11203083160313D2007A
:1008E800D20B742C0000A83083120313B20000301E
:1008F800B3000A168A1151220A128A11203083166F
:100908000313D200D20B862C00001A308312031373
:10091800B2008030B3000A168A1151220A128A11D5
:10092800203083160313D200D20B982C00002230FB
:1009380083120313B2008030B3000A168A115122C1
:100948000A128A11203083160313D200D20BAA2C64
:100958000000A43083120313B2000030B3000A165B
:100968008A1151220A128A11203083160313D200E9
:10097800D20BBC2C000012308312031361066204F0
:10098800031DC72CC82C142D5F086004031DCD2C33
:10099800CE2C142D5D085E04031DD32CD42C142DED
:1009A800013085002730D700463058020318DD2C67
:1009B800DE2CEE2C5C3083160313D4005130D300A8
:1009C8005F30D200D20BE62CD30BE62CD40BE62CEE
:1009D800ED2C112D5B305802031CF32CF42C032D45
:1009E8001E3083160313D4006D30D3006130D2005B
:1009F800D20BFC2CD30BFC2CD40BFC2C112D25304A
:100A080083160313D4008730D3008B30D200D20B67
:100A18000B2DD30B0B2DD40B0B2D83120313850138
:100A28001B305902031C192D1A2D1F2D1530D0000B
:100A38000030D10016290A30D0000030D100162924
:100A48000A128A1112288312031330088039BD0054
:100A58003008B5003507BF00AF1F332D342D352DB5
:100A68003F143F080319392D3A2D4A2D3F0A031D1B
:100A78003E2D3F2D472D0030B0000030AF00003034
:100A8800AE000030AD00AF17B001522D0030B000FD
:100A98000030AF000030AE000030AD0034088039BF
:100AA800BE003E083D0603195A2D5B2D5C2D3D17EF
:100AB8003408B5003507BE00B31F632D642D652DBE
:100AC8003E143E080319692D6A2D7A2D3E0A031D2E
:100AD8006E2D6F2D772D0030B4000030B30000303C
:100AE800B2000030B100B317B401822D0030B40059
:100AF8000030B3000030B2000030B1003F083E02C1
:100B08000318872D882DAE2D3D1F8B2D8C2D902DF4
:100B18008030B5003508BD063F08C0003E08BF005C
:100B28004008BE002D08C0003108AD004008B100E3
:100B38002E08C0003208AE004008B2002F08C000DE
:100B48003308AF004008B3003008C0003408B000D4
:100B58004008B400C0013E08B500B6013608B80028
:100B68003F083502B700031CB8033808803AFF0075
:100B780080307F02031DC22D1A303702031CC52D99
:100B8800C62DFD2D8312031330082F042E042D04C7
:100B9800031DCF2DD12D0130D22D0030C0000030E3
:100BA800B0000030AF000030AE000030AD003E08AD
:100BB800BF00052E401CE12DE22DE92D4008B500AF
:100BC8000310350C0138C000EB2D0310C00C2D1C90
:100BD800EE2DEF2DF02DC0170130B500300DB00C03
:100BE800AF0CAE0CAD0CB50BF22D0130B5003508CD
:100BF800BF07831203133E083F02031C042E052E71
:100C0800DE2D3D1B082E092E522E3F08031D0D2EEA
:100C18000E2E172E0030B0000030AF000030AE00AE
:100C28000030AD007E2F3108AD07320803110318DC
:100C3800013E0319202EAE07330803110318013EA5
:100C48000319272EAF07340803110318013E0319AF
:100C58002E2EB007301C312E322E062F401C352E7A
:100C6800362E3D2E4008B5000310350C0138C00063
:100C78003F2E0310C00C2D1C422E432E442EC017AD
:100C88000130B500300DB00CAF0CAE0CAD0CB50B8F
:100C9800462E0130B5003508BF07062F3008803AC8
:100CA800FF003408803A7F02031D642E33082F02A8
:100CB800031D642E32082E02031D642E31082D02F6
:100CC8000318672E682EC02EFF30B500FF30B6001F
:100CD800FF30B700FF30B8003108B9003208BA0059
:100CE8003308BB003408BC002D08B9022E08031CC9
:100CF8002E0F7F2E802EBA022F08031C2F0F852E51
:100D0800862EBB023008031C300F8B2E8C2EBC02A3
:100D18003908B5073A0803183A0F932E942EB607E8
:100D28003B0803183B0F992E9A2EB7073C08031867
:100D38003C0AB8073808B0003708AF003608AE00DC
:100D48003508AD008030B5003508BD06C009C00AB9
:100D58004008031DB02EB12ECE2E0130AD07003055
:100D680003180130AE07003003180130AF07003018
:100D780003180130B007CE2E3108AD023208031C2B
:100D8800320FAE023308031C330FAF023408031CC2
:100D9800340FB00230082F042E042D04031DD52E65
:100DA800D62E022F4008031DDA2EDB2E022F00302C
:100DB800B0000030AF000030AE000030AD007E2F34
:100DC8000130B5000310AD0DAE0DAF0DB00DB50B74
:100DD800E62EC01FF02EF12EF22E2D14401CF52EFB
:100DE800F62EF92E0314C00DFB2E0310C00D3F087C
:100DF8000319FF2E002F022F0130BF02AF1F052F4E
:100E0800062FE42EBE01C01F0A2F0B2F192F4008F2
:100E18007F390319102F112F142FBE01BE0A192F65
:100E28002D1C172F182F192F112F3E0803191D2FAE
:100E38001E2F522F0130AD07003003180130AE07C6
:100E4800003003180130AF07003003180130B00735
:100E5800301C2F2F302F522F2D08B5002E08B6002A
:100E68002F08B7003008B8000130B900380DB80CA9
:100E7800B70CB60CB50CB90B3A2F3808B0003708C8
:100E8800AF003608AE003508AD003F0A03194D2FF4
:100E98004E2F522F0130B5003508BF073F0A0319FE
:100EA800562F572F5C2F3F08031D5B2F5C2F6A2F8F
:100EB8000030B0000030AF000030AE000030AD00B0
:100EC8003F08031D682F692F6A2FBD013F1C6D2F36
:100ED8006E2F702FAF17742F7F30B5003508AF0510
:100EE8003F08B5000310350CB000BD1F7C2F7D2FC7
:100EF8007E2FB0170800831603130F178F160F16CF
:100F08000F148316031788018901831603138501BB
:100F1800831203138501FF300A168A15E4270A1283
:100F28008A1183160313880183120313860188012B
:100F38000030BE000030BD002530BC008030BB0052
:100F48000A168A112B230A128A110B178B170030E5
:100F580083120313BE000130BD008630BC00A030F0
:100F6800BB000A168A118F210A128A110A168A11E1
:100F7800F2240A128A110A168A15AD270A128A1152
:100F880083120313B101B10A01300A168A11DF2254
:100F98000A128A11013083120313B2008030B300A1
:100FA8000A168A1151220A128A1183120313B101F7
:100FB800B10A02300A168A11DF220A128A110C308D
:100FC80083120313B2008030B3000A168A1151222B
:100FD8000A128A1183160313811201128111011159
:100FE80081100114D9308312031381008B160B1161
:020FF8000800EF
:101006007E088A007F0882000A128A1503200A12C7
:101016008A158000840A04087D0603190034FF0A35
:101026000319FE0A07280030831203132D05B500A5
:1010360000302E05B60080302F05B7007F30300512
:10104600B8003808370436043504031D2B282C282D
:1010560034280030B0000030AF000030AE00003061
:10106600AD0000303105B50000303205B6008030E5
:101076003305B7007F303405B80038083704360426
:101086003504031D4728482850280030B400003096
:10109600B3000030B2000030B100B01F532854280E
:1010A60078280030B5000030B6000030B700803038
:1010B600B8002D08B5022E08031C2E0F63286428DD
:1010C600B6022F08031C2F0F69286A28B7023008BA
:1010D600031C300F6F287028B8023808B000370894
:1010E600AF003608AE003508AD00B41F7B287C285B
:1010F600A0280030B5000030B6000030B7008030C0
:10110600B8003108B5023208031C320F8B288C2830
:10111600B6023308031C330F91289228B70234080D
:10112600031C340F97289828B8023808B4003708EB
:10113600B3003608B2003508B1008030B006803002
:10114600B40634083002031DB22833082F02031DEB
:10115600B22832082E02031DB22831082D020318C8
:10116600B528B628B8280310B92803140800831236
:101176000313BE003E080319C128C228D628B91F8A
:10118600C528C628D6283609C0003709C10038093F
:10119600C2003909C300C00A0319C10A0319C20AE9
:1011A6000319C30ADE283908C3003808C200370805
:1011B600C1003608C0003908380437043604031D58
:1011C600E528E628EF280030B9000030B8000030E6
:1011D600B7000030B60073299630BF00FF280130F3
:1011E600BA003A08BF0701300310C30CC20CC10C89
:1011F600C00CFF3E031DF728FE304305031D0429DE
:101206000529F22821290130BA003A08BF07013022
:10121600C007003003180130C10700300318013041
:10122600C207003003180130C30701300310C30C96
:10123600C20CC10CC00CFF3E031D1929FF3043052B
:10124600031D26292729062933290130BF0201302B
:10125600BA000310C00DC10DC20DC30DBA0B2C2967
:10126600C21B362937293D2902303F0203183C2983
:101276003D2928293F18402941294929FF30C00521
:10128600FF30C1057F30C205FF30C3050310BF0C18
:101296003F08BA00BB01BC01BD0118300310BA0DEE
:1012A600BB0DBC0DBD0DFF3E031D51293A08C00400
:1012B6003B08C1043C08C2043D08C3043E080319A8
:1012C600652966296B29B91F69296A296B29C317FC
:1012D6004308B9004208B8004108B7004008B60004
:1012E60008000B1C77297829472A06187B297C29B0
:1012F600D3290130E1070318E20A0030E207620849
:10130600803AFF0080307F02031D8B29183061026E
:10131600031C8E298F29932983120313E101E2010D
:101326000A168A1543270A128A15D030FB000030A8
:10133600FC000A168A1570270A128A150230FB006D
:101346000030FC000A168A1570270A128A158312C5
:1013560003136208FA006108F9000A168A11342498
:101366000A128A157A08FC007908FB000A168A1503
:1013760070270A128A150A168A154C270A128A1528
:10138600023083120313A8000430A700B930A60068
:10139600A60BCB29A70BCB29A80BCB29D229DE2953
:1013A6008618D629D729DE29FF30E1070318E20A75
:1013B600FF30E2079329831203130619E329E42970
:1013C6003B2A0130DF070318E00A0030E007600817
:1013D600803AFF0080307F02031DF3293C305F0214
:1013E600031CF629F729FB2983120313DF01E00109
:1013F6000A168A1543270A128A15D030FB000030D8
:10140600FC000A168A1570270A128A150130FB009D
:101416000030FC000A168A1570270A128A158312F4
:1014260003136008FA005F08F9000A168A113424CB
:101436000A128A157A08FC007908FB000A168A1532
:1014460070270A128A150A168A154C270A128A1557
:10145600023083120313A8000430A700B930A60097
:10146600A60B332AA70B332AA80B332A3A2A462A75
:1014760086193E2A3F2A462AFF30DF070318E00A6C
:10148600FF30E007FB290B10831203138C1E4C2A36
:101496004D2A972A880131301A06031D532A542AE9
:1014A6005E2AAC30F1000030F2000A168A11C9211A
:1014B6000A128A15942A32301A06031D632A642AF0
:1014C6006E2AA430F1000030F2000A168A11C921F2
:1014D6000A128A15942A33301A06031D732A742AAF
:1014E6007E2AA830F1000030F2000A168A11C921BE
:1014F6000A128A15942A34301A06031D832A842A6E
:10150600942A5708F1000030031D8030F2000A16B5
:101516008A11C9210A128A15253083120313D700AE
:10152600942A831203138C120B1D9A2A9B2ABE2A15
:10153600D93081000130A6002608FD077D08A600E7
:10154600A70127085102031DAA2A26085002031CD8
:10155600AD2AAE2AAF2A85147D08A600A701510838
:101566002702031DB82A50082602031CBB2ABC2AE0
:10157600BD2A85100B112C08FF002B088A002A08AB
:101586008400290E8300FE0E7E0E090083160313C7
:101596003F0883120313B000831603133E08831219
:1015A6000313AF00831603133D0883120313AE0023
:1015B600831603133C0883120313AD000030B400F6
:1015C6000030B3000030B2000030B1000A128A15B4
:1015D60016200A128A150318F12AF22A302B8316CE
:1015E60003133F0883120313B000831603133E0848
:1015F60083120313AF00831603133D0883120313EC
:10160600AE00831603133C0883120313AD000A16BB
:101616008A15A0270A128A15831203133008831627
:101626000313BF00831203132F0883160313BE0090
:10163600831203132E0883160313BD0083120313AC
:101646002D0883160313BC00400884002D30831335
:1016560080000130C3004308C007831603133F0808
:1016660083120313C400831603133E088312031365
:10167600C300831603133D0883120313C2008316A7
:1016860003133C0883120313C1000A168A110127AB
:101696000A128A1583120313420883160313CD0018
:1016A60083120313410883160313CC004C088312DC
:1016B6000313B600831603134D0883120313B700F2
:1016C6000030B71BFF30B800B90001300A128A1586
:1016D600BA200A128A15831203133908C70038087C
:1016E600C6003708C5003608C400831603133F0832
:1016F60083120313CB00831603133E0883120313CE
:10170600CA00831603133D0883120313C900831608
:1017160003133C0883120313C8000A168A116220B9
:101726000A128A1583120313470883160313D1007E
:1017360083120313460883160313D0008312031380
:10174600450883160313CF00831203134408831638
:101756000313CE00CA01CB01F52B413083120313CC
:10176600B9002030B8000030B7000030B60083164C
:101776000313510883120313BD0083160313500885
:1017860083120313BC00831603134F08831203133B
:10179600BB00831603134E0883120313BA000A1202
:1017A6008A15BB240A128A15831203133908831675
:1017B6000313D10083120313380883160313D000D2
:1017C60083120313370883160313CF008312031300
:1017D600360883160313CE000130CA070318CB0A56
:1017E6000030CB074B08803AC3004208803A4302D8
:1017F600031DFF2B41084A02031C022C032CB02BAD
:1018060083160313510883120313B40083160313BC
:10181600500883120313B300831603134F08831271
:101826000313B200831603134E0883120313B10089
:101836003F30B0000030AF000030AE000030AD00E9
:101846000A128A1127250A128A15831203133008F1
:10185600C4002F08C3002E08C2002D08C1000A16B6
:101866008A1101270A128A15831203134208831666
:101876000313C50083120313410883160313C40020
:101886004D0883120313B900831603134C08831201
:101896000313B80083160313400883120313BA0018
:1018A6000030BB00BC000A168A118C260A128A1563
:1018B60083120313390883160313C7008312031315
:1018C600380883160313C6004608C3004308C0073A
:1018D6004208803AFF0080307F02031D742C0130DD
:1018E6004102031C772C782C832C831603134008A3
:1018F60084002E30831380000130C3004308C007E4
:1019060083160313450883120313B90083160313C2
:10191600440883120313B800831603134008831286
:101926000313BA0083160313420883120313BC0081
:1019360083160313410883120313BB000A168A1188
:101946008C260A128A158312031339088316031389
:10195600C90083120313380883160313C800480806
:10196600C3004308C00740088400831380010800B1
:101976008312031339088039C3003908BE003E07B5
:10198600C900B81FC72CC82CC92C4914490803190B
:10199600CD2CCE2CDD2C490A031DD22CD32CDB2CCE
:1019A6000030B9000030B8000030B7000030B60093
:1019B600B817E52C0030B9000030B8000030B70089
:1019C6000030B6003D088039BE003E08C3063D081B
:1019D600BE003E07C800BC1FF12CF22CF32C4814A5
:1019E60048080319F72CF82C072D480A031DFC2C70
:1019F600FD2C052D0030BD000030BC000030BB00C2
:101A06000030BA00BC170F2D0030BD000030BC00FE
:101A16000030BB000030BA0048080319132D142DFE
:101A2600192D4908031D182D192D222D0030B90036
:101A36000030B8000030B7000030B600FF2F36087F
:101A4600AD003C080A168A11FB200A128A15831279
:101A560003132E08CF002D08CE004E08BE00BF018E
:101A6600C001C1014108C7004008C6003F08C500C3
:101A76003E08C4004F08BE00BF01C001C1014108B5
:101A8600CD004008CC003F08CB003E08CA0037080E
:101A9600AD003B080A168A11FB200A128A1583122A
:101AA60003132E08CF002D08CE004E08BE00BF013E
:101AB600C001C1013E08C4073F0803110318013ED7
:101AC6000319662DC507400803110318013E0319C3
:101AD6006D2DC607410803110318013E0319742D25
:101AE600C7074F08BE00BF01C001C1013E08CA07B3
:101AF6003F0803110318013E0319822DCB07400846
:101B060003110318013E0319892DCC07410803115F
:101B16000318013E0319902DCD073808AD003A0889
:101B26000A168A11FB200A128A15831203132E083D
:101B3600CF002D08CE004E08BE00BF01C001C10176
:101B46003E08C4073F0803110318013E0319AC2DD4
:101B5600C507400803110318013E0319B32DC60734
:101B6600410803110318013E0319BA2DC7074F0890
:101B7600BE00BF01C001C1013E08CA073F080311EC
:101B86000318013E0319C82DCB074008031103189B
:101B9600013E0319CF2DCC07410803110318013E5E
:101BA6000319D62DCD070830BE000310C40DC50D90
:101BB600C60DC70DBE0BD82D3708AD003A080A165C
:101BC6008A11FB200A128A15831203132E08CF00EE
:101BD6002D08CE004E08BE004F08BF00C001C1014F
:101BE6003E08C4073F0803110318013E0319FC2DE4
:101BF600C507400803110318013E0319032EC60743
:101C0600410803110318013E03190A2EC7073608B7
:101C1600AD003B080A168A11FB200A128A158312A8
:101C260003132E08CF002D08CE004E08BE004F0825
:101C3600BF00C001C1013E08C4073F0803110318D5
:101C4600013E0319272EC507400803110318013E5C
:101C560003192E2EC607410803110318013E031966
:101C6600352EC7070830BE000310C40DC50DC60DBE
:101C7600C70DBE0B372E3608AD003A080A168A1174
:101C8600FB200A128A15831203132E08CF002D0893
:101C9600CE004E08BE004F08BF00C001C1013E087D
:101CA600C4073F0803110318013E03195B2EC5073D
:101CB600400803110318013E0319622EC6074108A6
:101CC60003110318013E0319692EC7073708AD0033
:101CD6003C080A168A11FB200A128A15831203137E
:101CE6002E08CF002D08CE004E08BE004F08BF00BC
:101CF600C001C1013E08CA073F0803110318013E8F
:101D06000319862ECB07400803110318013E031959
:101D16008D2ECC07410803110318013E0319942E9A
:101D2600CD073808AD003B080A168A11FB200A12B7
:101D36008A15831203132E08CF002D08CE004E08F5
:101D4600BE004F08BF00C001C1013E08CA073F08D8
:101D560003110318013E0319B12ECB0740080311E6
:101D66000318013E0319B82ECC07410803110318C6
:101D7600013E0319BF2ECD073808AD003C080A16F0
:101D86008A11FB200A128A15831203132E08CF002C
:101D96002D08CE004E08BE004F08BF00C001C1018D
:101DA60008300310BE0DBF0DC00DC10DFF3E031D53
:101DB600D42E3E08CA073F0803110318013E031933
:101DC600E52ECB07400803110318013E0319EC2E3C
:101DD600CC07410803110318013E0319F32ECD0762
:101DE6004408BE004508BF004608C0004708C100B9
:101DF60018300310C10CC00CBF0CBE0CFF3E031DF7
:101E0600FC2E3E08CA073F0803110318013E0319BA
:101E16000D2FCB07400803110318013E0319142F99
:101E2600CC07410803110318013E03191B2FCD07E8
:101E36000830BE000310C40DC50DC60DC70DBE0B80
:101E46001D2F49084807BE00BF01BF0D3E08823E50
:101E5600CE003F080318013EFF3ECF004F2F013052
:101E6600BE000310CA0DCB0DCC0DCD0DBE0B342F0D
:101E7600C71F3E2F3F2F402F4A140130BE000310CC
:101E8600C40DC50DC60DC70DBE0B422FFF30CE07C4
:101E96000318CF0AFF30CF07CC1F522F532F322FF4
:101EA600C801C71F572F582F742FFF304405BE0097
:101EB600FF304505BF00FF304605C0007F304705AF
:101EC600C100410840043F043E0403196B2F6C2FE8
:101ED6006F2FC801C80A742F4A1C722F732F742FD4
:101EE6006C2F48080319782F792FAA2F0130CA07BB
:101EF600003003180130CB07003003180130CC073F
:101F0600003003180130CD074D1C8A2F8B2FAA2FC6
:101F16004A08BE004B08BF004C08C0004D08C1006F
:101F26000130C200410DC10CC00CBF0CBE0CC20B6F
:101F3600952F4108CD004008CC003F08CB003E0855
:101F4600CA000130CE070318CF0A0030CF074F086A
:101F5600803AFF0080307F02031DB32FFF304E0210
:101F6600031CB62FB72FC22F7F3083120313CD0069
:101F76008030CC000030CB000030CA00F32F831233
:101F860003134F08803AFF0080307F02031DCD2FD8
:101F960001304E020318D02FD12FDD2F00308312CF
:101FA6000313CD000030CC000030CB000030CA0057
:101FB600C301F32F831203134E08C900FF30CA056D
:101FC600FF30CB057F30CC050030CD05491CEC2F0A
:101FD600ED2FEE2FCC174908BE0003103E0CCD00A6
:101FE6004308BE003E08CD044D08B9004C08B800B1
:101FF6004B08B7004A08B6000800FF1B0A288313DF
:102006007F1883170008840A0319FF0A0800103096
:102016008A000408840A820700344234693465342D
:102026006E34763465346E34693464346F34003417
:10203600433461347234673461346E3464346F34DB
:102046000034543469346D3465343A342034003401
:1020560048343A34003451343A34003454343A343F
:10206600003430340034313400340A168A1593278C
:102076000A168A11831203133E089300080083127E
:102086000313AD002D1C482849284B2808164C2858
:102096000812AD1C4F28502852288816532888123B
:1020A6002D1D56285728592808175A280813AD1DDC
:1020B6005D285E286028881761288813080080300C
:1020C60083120313C7064B08B0004A08AF0049083D
:1020D600AE004808AD004708B4004608B3004508FE
:1020E600B2004408B1000A128A1127250A168A117D
:1020F600831203133008C7002F08C6002E08C50038
:102106002D08C4000800F401F501701C8B288C28EA
:1021160092287208F4070318F50A7308F5070130C8
:102126000310F20DF30DFF3E031D9328013003103B
:10213600F10CF00CFF3E031D9A2870087104031D74
:10214600A528A62888287508F1007408F00008005C
:1021560083120313B101B2012D1CB228B328B9288A
:102166002F08B1070318B20A3008B207013003106E
:10217600AF0DB00DFF3E031DBA2801300310AE0CA3
:10218600AD0CFF3E031DC1282D082E04031DCC28CF
:10219600CD28AF283208AE003108AD0008000F3058
:1021A600831203133305B50000303405B600330E31
:1021B6000F39AD00340EF039AD04340E0F39AE00D0
:1021C600F030AE1D0030AE040A30AF000030B00073
:1021D6000A168A11AB200A168A11831203133508D0
:1021E6002D07B30036080318360A2E07B400080078
:1021F60083120313B500B101B2012D08AF00B0017F
:102206002F08B3003008B400351C0A290B29112900
:102216003308B1070318B20A3408B20701300310B5
:10222600B30DB40DFF3E031D12290310B50C35087E
:10223600031D1E291F2907293208AE003108AD00EB
:1022460008000A168A1593270A168A11831603139D
:1022560091150A168A1593270A168A1183120313F3
:102266001308AF00B0012F08B1003008B2000A16FB
:102276008A1593270A168A11831203132D032E0437
:10228600031D462947294B298316031391124E290C
:102296008316031391161116831203133208AE0028
:1022A6003108AD00080083120313B10031080F395D
:1022B600AF003108F039B00008153008AE00043020
:1022C6000310AE0CFF3E031D63292E080A168A1161
:1022D60042200A168A1183120313881519308312B5
:1022E6000313AE00AE0B75297829831203138811E8
:1022F6002F080A168A1142200A168A11831203131E
:102306008815193083120313AE00AE0B88298B296A
:1023160083120313881108002830831203139400D4
:10232600831603139101831203133B08BF003C0875
:10233600C0003D08C1003E08C20002300310BF0DB8
:10234600C00DC10DC20DFF3E031DA1294208B000FC
:102356004108AF004008AE003F08AD000030B400B1
:102366007A30B3001230B2000030B1000A168A117A
:10237600BB250A168A11831203132D08FF3E831606
:10238600031393009401871507160800F601F70159
:10239600EE2976087107F4007208F3000318F30AB1
:1023A600F61FD629F3037308F50075088312031385
:1023B600FF00740884000A168A1100200A168A1182
:1023C6000A168A157A270A168A110130F6070318A3
:1023D600F70A0030F70776087107F4007208F30071
:1023E6000318F30AF61FF829F3037308F5007508B6
:1023F60083120313FF00740884000A168A11002052
:102406000A168A11003A031D092A0A2ACC2908004D
:1024160083120313B301B401342A33082E07B10023
:102426002F08B0000318B00AB31F1A2AB00383128C
:1024360003133008B2003208FF00310884000A1680
:102446008A1100200A168A110A168A15BA270A1650
:102456008A11013083120313B3070318B40A00303C
:10246600B40733082E07B1002F08B0000318B00ACE
:10247600B31F3E2AB003831203133008B20032089A
:10248600FF00310884000A168A1100200A168A11F4
:10249600003A031D4F2A502A102A080083120313FC
:1024A600B701B8017A2A37083207B5003308B400F5
:1024B6000318B40AB71F602AB4038312031334083F
:1024C600B6003608FF00350884000A168A11002077
:1024D6000A168A110A168A1156210A168A1101301D
:1024E60083120313B7070318B80A0030B807370872
:1024F6003207B5003308B4000318B40AB71F842A9C
:10250600B403831203133408B6003608FF003508F7
:1025160084000A168A1100200A168A11003A031D41
:10252600952A962A562A080083120313B700B30188
:10253600B4012D08FF3EB5002E080318013EFF3EEC
:10254600B600D02A8312031333083707AF002F08CB
:10255600840083130008B20035083707AF002F0840
:1025660084000008B00033083707B1003108840042
:102576003008800035083707AF002F08840032087E
:1025860080000130B3070318B40A0030B407FF30E7
:10259600B5070318B60AFF30B6073408803AAF000D
:1025A6003608803A2F02031DDA2A35083302031C47
:1025B600DD2ADE2AA52A080083120313B30033039B
:1025C600031DE62AE72A062B31087F3EB6003608A9
:1025D600B20004300310B20CFF3E031DED2A320890
:1025E600B40036080F39B50034080A168A15C8270C
:1025F6000A168A118312031335080A168A15C82784
:102606000A168A112A2B02303306031D0B2B0C2BBC
:102616002A2B3108BF3EB6003608B200043003103C
:10262600B20CFF3E031D122B3208B40036080F39D8
:10263600B50034080A168A15C8270A168A118312A5
:10264600031335080A168A15C8270A168A110800C0
:10265600831603131812181583160317871583128A
:102666000313981718131816831603139816831254
:1026760003138C12831603138C16831203133B0861
:10268600BF003C08C0003D08C1003E08C200023041
:102696000310BF0DC00DC10DC20DFF3E031D4B2B18
:1026A6004208B0004108AF004008AE003F08AD0048
:1026B6000030B4007A30B3001230B2000030B100FE
:1026C6000A168A11BB250A168A11831203132D08CE
:1026D600FF3EC3002E080318013EFF3EC400013032
:1026E600440200300319430203187A2B7B2B7F2BFD
:1026F60043088316031399000800F601F31F842B81
:10270600852B8C2BF209F309F20A0319F30AF60159
:10271600F60AF11F8F2B902B952BF009F109F00A81
:102726000319F10A7008710403199A2B9B2BCA2B03
:10273600F501F50AA92B01300310F00DF10DFF3E4E
:10274600031D9F2B0130F4007408F507F11FAC2B15
:10275600AD2B9E2B71087302031DB32B70087202FA
:10276600031CB62BB72BBD2B7008F2027108031C95
:10277600F303F30201300310F10CF00CFF3E031DCE
:10278600BE2B0130F502031DC92BCA2BAD2B7608D3
:102796000319CE2BCF2BD42BF209F309F20A031916
:1027A600F30A7308F1007208F0000800831203139D
:1027B600B301B01FDF2BE02BE72BAF09B009AF0A3F
:1027C6000319B00AB301B30AAE1FEA2BEB2BF02BA9
:1027D600AD09AE09AD0A0319AE0A2D082E04031978
:1027E600F52BF62B252CB201B20A042C013003106E
:1027F600AD0DAE0DFF3E031DFA2B0130B1003108C1
:10280600B207AE1F072C082CF92B2E083002031D29
:102816000E2C2D082F02031C112C122C182C2D08FF
:10282600AF022E08031CB003B00201300310AE0C39
:10283600AD0CFF3E031D192C0130B202031D242CE2
:10284600252C082C33080319292C2A2C2F2CAF09E8
:10285600B009AF0A0319B00A3008AE002F08AD0060
:10286600080083120313A201A3010130A400003063
:10287600A5007D2C0A30F0000030F1007A08F30044
:102886007908F2000A168A1180230A168A1171083D
:1028960083120313A1007008A0002108F10020088C
:1028A600F0002508F3002408F2000A168A11862093
:1028B6000A168A11700883120313A2070318A30AC3
:1028C6007108A30704300310A40DA50DFF3E031DD8
:1028D600662C0A30F0000030F1007A08F30079081F
:1028E600F2000A168A1154250A168A117108FA008E
:1028F6007008F9007A08803AFF0080307F02031DD5
:10290600862C013079020318892C8A2C3D2C8312DF
:1029160003132308FA002208F900080083120313A0
:10292600BA01BB010130BC000030BD00DE2C0A300C
:1029360083120313AD000030AE003708B00036082E
:10294600AF000A168A11D9230A168A1183120313B5
:102956002E08B9002D08B8003908AE003808AD00B9
:102966003D08B0003C08AF000A168A11AB200A16D3
:102976008A11831203132D08BA070318BB0A2E08FF
:10298600BB0704300310BC0DBD0DFF3E031DC52C57
:102996000A30AD000030AE003708B0003608AF0090
:1029A6000A168A1123260A168A11831203132E0881
:1029B600B7002D08B6003708803AFF0080307F0246
:1029C600031DE72C013036020318EA2CEB2C9A2C57
:1029D600831203133B08B7003A08B600080000301C
:1029E6000A168A1142200A168A11343083120313FA
:1029F600B200F130B100B10BFE2CB20BFE2C03304D
:102A06000A168A15C8270A168A110D30831203136F
:102A1600B200FB30B100B10B0E2DB20B0E2D033000
:102A26000A168A15C8270A168A111D30831203133F
:102A3600B2009030B100B10B1E2DB20B1E2D00005E
:102A460003300A168A15C8270A168A1102300A1692
:102A56008A15C8270A168A1102300A168A15C82747
:102A66000A168A1108300A168A15C8270A168A1104
:102A760000300A168A15C8270A168A110C300A165B
:102A86008A15C8270A168A1100300A168A15C82719
:102A96000A168A1106300A168A15C8270A168A11D6
:102AA6000800F601F11F582D592D602DF009F10986
:102AB600F00A0319F10AF601F60AF31F632D642DD5
:102AC6006D2DF209F309F20A0319F30A0130F40035
:102AD6007408F606F701F801700871040319742DDD
:102AE600752DAC2DF501F50A832D01300310F00D7F
:102AF600F10DFF3E031D792D0130F4007408F50732
:102B0600F11F862D872D782D01300310F70DF80D56
:102B1600FF3E031D882D71087302031D942D700856
:102B26007202031C972D982D9F2D7008F2027108D2
:102B3600031CF303F302771401300310F10CF00CBD
:102B4600FF3E031DA02D0130F502031DAB2DAC2D5C
:102B5600872D76080319B02DB12DB62DF709F80982
:102B6600F70A0319F80A7808F1007708F000080058
:102B7600003083120313B9000030B8000030B700EC
:102B86000030B60030082F042E042D040319CC2D76
:102B9600CD2D1A2EBA01BA0ADD2D0130B50003106B
:102BA600AD0DAE0DAF0DB00DB50BD22D0130B5008C
:102BB6003508BA07B01FE02DE12DD02D0130B50044
:102BC6000310B60DB70DB80DB90DB50BE32D3008D2
:102BD6003402031DF82D2F083302031DF82D2E088D
:102BE6003202031DF82D2D083102031CFB2DFC2D8E
:102BF6000B2E2D08B1022E08031C2E0FB2022F0831
:102C0600031C2F0FB3023008031C300FB402361416
:102C160001300310B00CAF0CAE0CAD0CFF3E031D23
:102C26000C2E0130BA02031D192E1A2EE12D390879
:102C3600B0003808AF003708AE003608AD0008000F
:102C460083120313B301AE1F292E2A2E312EAD098E
:102C5600AE09AD0A0319AE0AB301B30AB01F342E8A
:102C6600352E3E2EAF09B009AF0A0319B00A01305E
:102C7600B1003108B306B401B5012D082E040319BD
:102C8600452E462E7D2EB201B20A542E0130031077
:102C9600AD0DAE0DFF3E031D4A2E0130B1003108C9
:102CA600B207AE1F572E582E492E01300310B40D11
:102CB600B50DFF3E031D592E2E083002031D652E4D
:102CC6002D082F02031C682E692E702E2D08AF02C8
:102CD6002E08031CB003B002341401300310AE0CEE
:102CE600AD0CFF3E031D712E0130B202031D7C2E7A
:102CF6007D2E582E33080319812E822E872EB40975
:102D0600B509B40A0319B50A3508AE003408AD0092
:102D1600080083120313BE01BF01C22E3E083A0704
:102D2600BD003D0884000A30AD000030AE00390811
:102D3600B0003808AF000A168A11D9230A168A117C
:102D4600831203132D08303E831380000130BE0723
:102D56000318BF0A0030BF070A30AD000030AE00CE
:102D66003908B0003808AF000A168A1123260A1659
:102D76008A11831203132E08B9002D08B8003808EB
:102D86003904031DC72EC82E912ED92E8312031384
:102D96003E083A07BD003D088400303083138000AA
:102DA6000130BE070318BF0A0030BF073F08803A4C
:102DB600BD003C08803A3D02031DE32E3B083E025F
:102DC600031CE62EE72EC92E831203133F08AE001E
:102DD6003E08AD003A080A168A1197220A168A1189
:102DE600831203133E083A07BD003D08840083138F
:102DF60080013F08B9003E08B8000800031083129E
:102E06000313430D440DCA004A08031D0B2F0C2F54
:102E1600152F0030C4000030C3000030C20000305F
:102E2600C100782F4108C5004208C6004308C70004
:102E36004408C8001F300310C80CC70CC60CC50CCC
:102E4600FF3E031D1E2F4508C900C317FF30C105ED
:102E5600FF30C205FF30C3050030C4059630CA02F4
:102E6600CA1F362F372F512F4A08803A973E03182C
:102E76003D2F3E2F3F2F0C2F01300310C40CC30CE7
:102E8600C20CC10CFF3E031D402F0130C500450892
:102E9600CA07031D4F2F502F3F2F682F20304A029D
:102EA600031C562F572F632F0C2F0130C50003101C
:102EB600C10DC20DC30DC40DC50B5A2F0130CA0278
:102EC6004A08031D672F682F582F490803196C2FCE
:102ED6006D2F782FC109C209C309C409C10A031994
:102EE600C20A0319C30A0319C40A0800831203138A
:102EF600BA003A08BF00BC013F08031D832F842F88
:102F0600C02F36088400303083138000360A8400D0
:102F16008001FF2F3C083607B700370884000A30C7
:102F2600AD000030AE003F08B800B9013808AF0068
:102F36003908B0000A168A11D9230A168A11831293
:102F460003132D08303E831380000130B700370885
:102F5600BC070A30AD000030AE003F08B700B8012C
:102F66003708AF003808B0000A168A1123260A1659
:102F76008A11831203132D08BF003F08031DC42FB7
:102F8600C52F8D2F3C083607B700370884008313FA
:102F96008001BD013C08FF3EBE00F52F3D08360707
:102FA600B700370884000008BB003E083607B700A4
:102FB600370884000008B8003D083607B90039080C
:102FC6008400380880003E083607B70037088400BA
:102FD6003B0880000130B7003708BD07FF30B70057
:102FE6003708BE073D08803AB7003E08803AB70268
:0A2FF600031CFE2FFF2FD12F08004F
:103E660064008001840A0406031900340406342F12
:103E760012340034323400343B340034103400340D
:103E86000A168A1586270A168A158316031311142D
:103E960008000A168A1586270A168A15831603133A
:103EA600111508000A168A1593270A168A1583160D
:103EB6000313911408000A168A1593270A168A1501
:103EC60083160313111408000A168A1593270A1677
:103ED6008A1583160313111508000A168A158627F4
:103EE6000A168A157B088312031393000800F00054
:103EF60083160313981C802F812F7B2F7008831243
:103F06000313990008008316031314198B2F8C2FA3
:103F1600862F11081F39031D912F922F862F080017
:103F2600831603131419982F992F932F11081F39ED
:103F3600031D9E2F9F2F932F080083120313300813
:103F46002F042E042D040319A92FAA2FAC2F80307D
:103F5600B006080000300A168A15C8270A168A1500
:103F660001300A168A15C8270A168A150800831210
:103F76000313AD0083160313981CC22FC32FBD2F46
:103F8600831203132D089900080083120313B0004F
:103F9600081130080A168A1142200A168A15831259
:103FA600031388150B3083120313AF006130AE0084
:103FB600AE0BDB2FAF0BDB2FE02F83120313881121
:103FC600080083120313AD002D0883160313860021
:103FD600831203132D08831603139500831203130C
:103FE6002D08831603139600831203138601831686
:103FF600031381138B150B100800FF3FFF3FFF3F94
:02400600FF3F7A
:04400E00D420FF3F7C
:00000001FF
